{
    "contractName": "OyenteTest",
    "abi": [
        {
            "constant": false,
            "inputs": [
                {
                    "name": "submitTxHash",
                    "type": "bytes32"
                },
                {
                    "name": "user",
                    "type": "address"
                },
                {
                    "name": "stdout",
                    "type": "string"
                },
                {
                    "name": "uri",
                    "type": "string"
                }
            ],
            "name": "iexecSubmitCallback",
            "outputs": [
                {
                    "name": "",
                    "type": "bool"
                }
            ],
            "payable": false,
            "stateMutability": "nonpayable",
            "type": "function"
        },
        {
            "constant": true,
            "inputs": [],
            "name": "DAPP_PRICE",
            "outputs": [
                {
                    "name": "",
                    "type": "uint256"
                }
            ],
            "payable": false,
            "stateMutability": "view",
            "type": "function"
        },
        {
            "constant": false,
            "inputs": [
                {
                    "name": "param",
                    "type": "string"
                }
            ],
            "name": "iexecSubmit",
            "outputs": [],
            "payable": true,
            "stateMutability": "payable",
            "type": "function"
        },
        {
            "constant": true,
            "inputs": [],
            "name": "DAPP_NAME",
            "outputs": [
                {
                    "name": "",
                    "type": "string"
                }
            ],
            "payable": false,
            "stateMutability": "view",
            "type": "function"
        },
        {
            "inputs": [
                {
                    "name": "_iexecOracleAddress",
                    "type": "address"
                }
            ],
            "payable": false,
            "stateMutability": "nonpayable",
            "type": "constructor"
        },
        {
            "anonymous": false,
            "inputs": [
                {
                    "indexed": false,
                    "name": "submitTxHash",
                    "type": "bytes32"
                },
                {
                    "indexed": true,
                    "name": "user",
                    "type": "address"
                },
                {
                    "indexed": false,
                    "name": "stdout",
                    "type": "string"
                },
                {
                    "indexed": false,
                    "name": "uri",
                    "type": "string"
                }
            ],
            "name": "IexecSubmitCallback",
            "type": "event"
        }
    ],
    "bytecode": "0x6060604052341561000f57600080fd5b60405160208061076c833981016040528080519060200190919050508060006040805190810160405280600a81526020017f4f79656e746554657374000000000000000000000000000000000000000000008152506000836000806101000a81548173ffffffffffffffffffffffffffffffffffffffff021916908373ffffffffffffffffffffffffffffffffffffffff1602179055506000809054906101000a900473ffffffffffffffffffffffffffffffffffffffff1690508073ffffffffffffffffffffffffffffffffffffffff16635993ef5384846000604051602001526040518363ffffffff167c01000000000000000000000000000000000000000000000000000000000281526004018083815260200180602001828103825283818151815260200191508051906020019080838360005b83811015610162578082015181840152602081019050610147565b50505050905090810190601f16801561018f5780820380516001836020036101000a031916815260200191505b509350505050602060405180830381600087803b15156101ae57600080fd5b6102c65a03f115156101bf57600080fd5b5050506040518051905015156101d457600080fd5b5050505050610584806101e86000396000f300606060405260043610610062576000357c0100000000000000000000000000000000000000000000000000000000900463ffffffff16806310a9f201146100675780633c0aef301461014b5780638cd213b914610174578063c878f958146101c6575b600080fd5b341561007257600080fd5b61013160048080356000191690602001909190803573ffffffffffffffffffffffffffffffffffffffff1690602001909190803590602001908201803590602001908080601f0160208091040260200160405190810160405280939291908181526020018383808284378201915050505050509190803590602001908201803590602001908080601f01602080910402602001604051908101604052809392919081815260200183838082843782019150505050505091905050610254565b604051808215151515815260200191505060405180910390f35b341561015657600080fd5b61015e6103ed565b6040518082815260200191505060405180910390f35b6101c4600480803590602001908201803590602001908080601f016020809104026020016040519081016040528093929190818152602001838380828437820191505050505050919050506103f2565b005b34156101d157600080fd5b6101d961051f565b6040518080602001828103825283818151815260200191508051906020019080838360005b838110156102195780820151818401526020810190506101fe565b50505050905090810190601f1680156102465780820380516001836020036101000a031916815260200191505b509250505060405180910390f35b60008060009054906101000a900473ffffffffffffffffffffffffffffffffffffffff1673ffffffffffffffffffffffffffffffffffffffff163373ffffffffffffffffffffffffffffffffffffffff161415156102b157600080fd5b8373ffffffffffffffffffffffffffffffffffffffff167f68d2eaa37ea3e53bbe55f11eb038084f280086b8f4c4552dbca1b5692efeb9138685856040518084600019166000191681526020018060200180602001838103835285818151815260200191508051906020019080838360005b8381101561033e578082015181840152602081019050610323565b50505050905090810190601f16801561036b5780820380516001836020036101000a031916815260200191505b50838103825284818151815260200191508051906020019080838360005b838110156103a4578082015181840152602081019050610389565b50505050905090810190601f1680156103d15780820380516001836020036101000a031916815260200191505b509550505050505060405180910390a260019050949350505050565b600081565b60008060009054906101000a900473ffffffffffffffffffffffffffffffffffffffff1690508073ffffffffffffffffffffffffffffffffffffffff1663d99a8dc334846000604051602001526040518363ffffffff167c01000000000000000000000000000000000000000000000000000000000281526004018080602001828103825283818151815260200191508051906020019080838360005b838110156104aa57808201518184015260208101905061048f565b50505050905090810190601f1680156104d75780820380516001836020036101000a031916815260200191505b50925050506020604051808303818588803b15156104f457600080fd5b6125ee5a03f1151561050557600080fd5b5050505060405180519050151561051b57600080fd5b5050565b6040805190810160405280600a81526020017f4f79656e74655465737400000000000000000000000000000000000000000000815250815600a165627a7a72305820f3bd1f0ecdcd365b0a9f7f9aa130ee28c021ea6c448e01d709296ee6b64d9f7c0029",
    "source": "pragma solidity ^0.4.11;\nimport \"iexec-oracle-contract/contracts/IexecOracleAPI.sol\";\ncontract OyenteTest is IexecOracleAPI{\n\n    uint public constant DAPP_PRICE = 0;\n    string public constant DAPP_NAME = \"OyenteTest\";\n\n    function OyenteTest (address _iexecOracleAddress) IexecOracleAPI(_iexecOracleAddress,DAPP_PRICE,DAPP_NAME){\n\n    }\n\n}\n",
    "sourcePath": "/home/hantong/Documents/oyenteTest/iexec-dapps-registry/contracts/OyenteTest.sol",
    "compiler": {
        "name": "solc",
        "version": "0.4.19+commit.c4cbbb05.Emscripten.clang"
    },
    "schemaVersion": "2.0.0",
    "updatedAt": "2018-04-13T09:29:12.353Z"
}