{
    "contractName": "Stockfish",
    "abi": [
        {
            "constant": true,
            "inputs": [],
            "name": "DAPP_PRICE",
            "outputs": [
                {
                    "name": "",
                    "type": "uint256"
                }
            ],
            "payable": false,
            "stateMutability": "view",
            "type": "function"
        },
        {
            "constant": false,
            "inputs": [
                {
                    "name": "param",
                    "type": "string"
                }
            ],
            "name": "iexecSubmit",
            "outputs": [],
            "payable": true,
            "stateMutability": "payable",
            "type": "function"
        },
        {
            "constant": true,
            "inputs": [],
            "name": "DAPP_NAME",
            "outputs": [
                {
                    "name": "",
                    "type": "string"
                }
            ],
            "payable": false,
            "stateMutability": "view",
            "type": "function"
        },
        {
            "inputs": [
                {
                    "name": "_iexecOracleAddress",
                    "type": "address"
                }
            ],
            "payable": false,
            "stateMutability": "nonpayable",
            "type": "constructor"
        },
        {
            "anonymous": false,
            "inputs": [
                {
                    "indexed": false,
                    "name": "status",
                    "type": "string"
                },
                {
                    "indexed": true,
                    "name": "user",
                    "type": "address"
                }
            ],
            "name": "Logs",
            "type": "event"
        },
        {
            "anonymous": false,
            "inputs": [
                {
                    "indexed": false,
                    "name": "submitTxHash",
                    "type": "bytes32"
                },
                {
                    "indexed": true,
                    "name": "user",
                    "type": "address"
                },
                {
                    "indexed": false,
                    "name": "stdout",
                    "type": "string"
                },
                {
                    "indexed": false,
                    "name": "uri",
                    "type": "string"
                }
            ],
            "name": "IexecSubmitCallback",
            "type": "event"
        },
        {
            "constant": true,
            "inputs": [
                {
                    "name": "userMove",
                    "type": "string"
                }
            ],
            "name": "checkValidity",
            "outputs": [
                {
                    "name": "validity",
                    "type": "bool"
                }
            ],
            "payable": false,
            "stateMutability": "view",
            "type": "function"
        },
        {
            "constant": false,
            "inputs": [
                {
                    "name": "userMove",
                    "type": "string"
                }
            ],
            "name": "setParam",
            "outputs": [],
            "payable": false,
            "stateMutability": "nonpayable",
            "type": "function"
        },
        {
            "constant": false,
            "inputs": [],
            "name": "undoMove",
            "outputs": [],
            "payable": false,
            "stateMutability": "nonpayable",
            "type": "function"
        },
        {
            "constant": false,
            "inputs": [],
            "name": "flushGame",
            "outputs": [],
            "payable": false,
            "stateMutability": "nonpayable",
            "type": "function"
        },
        {
            "constant": false,
            "inputs": [
                {
                    "name": "submitTxHash",
                    "type": "bytes32"
                },
                {
                    "name": "user",
                    "type": "address"
                },
                {
                    "name": "appName",
                    "type": "string"
                },
                {
                    "name": "stdout",
                    "type": "string"
                }
            ],
            "name": "iexecSubmitCallback",
            "outputs": [
                {
                    "name": "",
                    "type": "bool"
                }
            ],
            "payable": false,
            "stateMutability": "nonpayable",
            "type": "function"
        },
        {
            "constant": true,
            "inputs": [],
            "name": "getResult",
            "outputs": [
                {
                    "name": "game",
                    "type": "string"
                }
            ],
            "payable": false,
            "stateMutability": "view",
            "type": "function"
        }
    ],
    "bytecode": "0x6060604052341561000f57600080fd5b60405160208062001fdd833981016040528080519060200190919050508060006040805190810160405280600981526020017f73746f636b6669736800000000000000000000000000000000000000000000008152506000836000806101000a81548173ffffffffffffffffffffffffffffffffffffffff021916908373ffffffffffffffffffffffffffffffffffffffff1602179055506000809054906101000a900473ffffffffffffffffffffffffffffffffffffffff1690508073ffffffffffffffffffffffffffffffffffffffff16635993ef5384846000604051602001526040518363ffffffff167c01000000000000000000000000000000000000000000000000000000000281526004018083815260200180602001828103825283818151815260200191508051906020019080838360005b83811015610163578082015181840152602081019050610148565b50505050905090810190601f1680156101905780820380516001836020036101000a031916815260200191505b509350505050602060405180830381600087803b15156101af57600080fd5b6102c65a03f115156101c057600080fd5b5050506040518051905015156101d557600080fd5b5050505050611df380620001ea6000396000f300606060405260043610610099576000357c0100000000000000000000000000000000000000000000000000000000900463ffffffff16806310a9f2011461009e5780631a3c1466146101825780633c0aef30146101df57806343dbfa64146102085780638cd213b91461021d578063c878f9581461026f578063d29e9101146102fd578063de29278914610312578063f4d59b3a146103a0575b600080fd5b34156100a957600080fd5b61016860048080356000191690602001909190803573ffffffffffffffffffffffffffffffffffffffff1690602001909190803590602001908201803590602001908080601f0160208091040260200160405190810160405280939291908181526020018383808284378201915050505050509190803590602001908201803590602001908080601f01602080910402602001604051908101604052809392919081815260200183838082843782019150505050505091905050610415565b604051808215151515815260200191505060405180910390f35b341561018d57600080fd5b6101dd600480803590602001908201803590602001908080601f016020809104026020016040519081016040528093929190818152602001838380828437820191505050505050919050506105b8565b005b34156101ea57600080fd5b6101f2610a24565b6040518082815260200191505060405180910390f35b341561021357600080fd5b61021b610a29565b005b61026d600480803590602001908201803590602001908080601f01602080910402602001604051908101604052809392919081815260200183838082843782019150505050505091905050610b11565b005b341561027a57600080fd5b610282610c3e565b6040518080602001828103825283818151815260200191508051906020019080838360005b838110156102c25780820151818401526020810190506102a7565b50505050905090810190601f1680156102ef5780820380516001836020036101000a031916815260200191505b509250505060405180910390f35b341561030857600080fd5b610310610c77565b005b341561031d57600080fd5b610325610eb7565b6040518080602001828103825283818151815260200191508051906020019080838360005b8381101561036557808201518184015260208101905061034a565b50505050905090810190601f1680156103925780820380516001836020036101000a031916815260200191505b509250505060405180910390f35b34156103ab57600080fd5b6103fb600480803590602001908201803590602001908080601f01602080910402602001604051908101604052809392919081815260200183838082843782019150505050505091905050610f9f565b604051808215151515815260200191505060405180910390f35b60008060009054906101000a900473ffffffffffffffffffffffffffffffffffffffff1673ffffffffffffffffffffffffffffffffffffffff163373ffffffffffffffffffffffffffffffffffffffff1614151561047257600080fd5b8373ffffffffffffffffffffffffffffffffffffffff167f68d2eaa37ea3e53bbe55f11eb038084f280086b8f4c4552dbca1b5692efeb9138685856040518084600019166000191681526020018060200180602001838103835285818151815260200191508051906020019080838360005b838110156104ff5780820151818401526020810190506104e4565b50505050905090810190601f16801561052c5780820380516001836020036101000a031916815260200191505b50838103825284818151815260200191508051906020019080838360005b8381101561056557808201518184015260208101905061054a565b50505050905090810190601f1680156105925780820380516001836020036101000a031916815260200191505b509550505050505060405180910390a26105ac8483611512565b60019050949350505050565b60006105c382610f9f565b9050801515610650573373ffffffffffffffffffffffffffffffffffffffff167f42d0aa63882d13f3b702a293667bf6267795c9fb27027c06f4f907daff222f996040518080602001828103825260058152602001807f4552524f5200000000000000000000000000000000000000000000000000000081525060200191505060405180910390a2600080fd5b600061073d610738600160003373ffffffffffffffffffffffffffffffffffffffff1673ffffffffffffffffffffffffffffffffffffffff1681526020019081526020016000206000018054600181600116156101000203166002900480601f01602080910402602001604051908101604052809291908181526020018280546001816001161561010002031660029004801561072e5780601f106107035761010080835404028352916020019161072e565b820191906000526020600020905b81548152906001019060200180831161071157829003601f168201915b5050505050611965565b611993565b1415156108cd5761087661082a600160003373ffffffffffffffffffffffffffffffffffffffff1673ffffffffffffffffffffffffffffffffffffffff1681526020019081526020016000206000018054600181600116156101000203166002900480601f0160208091040260200160405190810160405280929190818152602001828054600181600116156101000203166002900480156108205780601f106107f557610100808354040283529160200191610820565b820191906000526020600020905b81548152906001019060200180831161080357829003601f168201915b5050505050611965565b6108686040805190810160405280600181526020017f2000000000000000000000000000000000000000000000000000000000000000815250611965565b611a5990919063ffffffff16565b600160003373ffffffffffffffffffffffffffffffffffffffff1673ffffffffffffffffffffffffffffffffffffffff16815260200190815260200160002060000190805190602001906108cb929190611cf4565b505b6109ca6109b3600160003373ffffffffffffffffffffffffffffffffffffffff1673ffffffffffffffffffffffffffffffffffffffff1681526020019081526020016000206000018054600181600116156101000203166002900480601f0160208091040260200160405190810160405280929190818152602001828054600181600116156101000203166002900480156109a95780601f1061097e576101008083540402835291602001916109a9565b820191906000526020600020905b81548152906001019060200180831161098c57829003601f168201915b5050505050611965565b6109bc84611965565b611a5990919063ffffffff16565b600160003373ffffffffffffffffffffffffffffffffffffffff1673ffffffffffffffffffffffffffffffffffffffff1681526020019081526020016000206000019080519060200190610a1f929190611cf4565b505050565b600081565b6020604051908101604052806000815250600160003373ffffffffffffffffffffffffffffffffffffffff1673ffffffffffffffffffffffffffffffffffffffff1681526020019081526020016000206000019080519060200190610a8f929190611cf4565b503373ffffffffffffffffffffffffffffffffffffffff167f42d0aa63882d13f3b702a293667bf6267795c9fb27027c06f4f907daff222f9960405180806020018281038252600f8152602001807f5461736b2066696e69736865642021000000000000000000000000000000000081525060200191505060405180910390a2565b60008060009054906101000a900473ffffffffffffffffffffffffffffffffffffffff1690508073ffffffffffffffffffffffffffffffffffffffff1663d99a8dc334846000604051602001526040518363ffffffff167c01000000000000000000000000000000000000000000000000000000000281526004018080602001828103825283818151815260200191508051906020019080838360005b83811015610bc9578082015181840152602081019050610bae565b50505050905090810190601f168015610bf65780820380516001836020036101000a031916815260200191505b50925050506020604051808303818588803b1515610c1357600080fd5b6125ee5a03f11515610c2457600080fd5b50505050604051805190501515610c3a57600080fd5b5050565b6040805190810160405280600981526020017f73746f636b66697368000000000000000000000000000000000000000000000081525081565b610c7f611d74565b6000610d64600160003373ffffffffffffffffffffffffffffffffffffffff1673ffffffffffffffffffffffffffffffffffffffff1681526020019081526020016000206000018054600181600116156101000203166002900480601f016020809104026020016040519081016040528092919081815260200182805460018160011615610100020316600290048015610d5a5780601f10610d2f57610100808354040283529160200191610d5a565b820191906000526020600020905b815481529060010190602001808311610d3d57829003601f168201915b5050505050611965565b9150600090505b60028160ff161015610dd557610dc7610db86040805190810160405280600181526020017f2000000000000000000000000000000000000000000000000000000000000000815250611965565b83611ad790919063ffffffff16565b508080600101915050610d6b565b610dde82611af1565b600160003373ffffffffffffffffffffffffffffffffffffffff1673ffffffffffffffffffffffffffffffffffffffff1681526020019081526020016000206000019080519060200190610e33929190611cf4565b503373ffffffffffffffffffffffffffffffffffffffff167f42d0aa63882d13f3b702a293667bf6267795c9fb27027c06f4f907daff222f9960405180806020018281038252600f8152602001807f5461736b2066696e69736865642021000000000000000000000000000000000081525060200191505060405180910390a25050565b610ebf611d8e565b600160003373ffffffffffffffffffffffffffffffffffffffff1673ffffffffffffffffffffffffffffffffffffffff1681526020019081526020016000206000018054600181600116156101000203166002900480601f016020809104026020016040519081016040528092919081815260200182805460018160011615610100020316600290048015610f955780601f10610f6a57610100808354040283529160200191610f95565b820191906000526020600020905b815481529060010190602001808311610f7857829003601f168201915b5050505050905090565b60006004610fb4610faf84611965565b611993565b141515610fc4576000905061150d565b7f6100000000000000000000000000000000000000000000000000000000000000826000815181101515610ff457fe5b9060200101517f010000000000000000000000000000000000000000000000000000000000000090047f0100000000000000000000000000000000000000000000000000000000000000027effffffffffffffffffffffffffffffffffffffffffffffffffffffffffffff1916108061110757507f680000000000000000000000000000000000000000000000000000000000000082600081518110151561109857fe5b9060200101517f010000000000000000000000000000000000000000000000000000000000000090047f0100000000000000000000000000000000000000000000000000000000000000027effffffffffffffffffffffffffffffffffffffffffffffffffffffffffffff1916115b15611115576000905061150d565b7f310000000000000000000000000000000000000000000000000000000000000082600181518110151561114557fe5b9060200101517f010000000000000000000000000000000000000000000000000000000000000090047f0100000000000000000000000000000000000000000000000000000000000000027effffffffffffffffffffffffffffffffffffffffffffffffffffffffffffff1916108061125857507f38000000000000000000000000000000000000000000000000000000000000008260018151811015156111e957fe5b9060200101517f010000000000000000000000000000000000000000000000000000000000000090047f0100000000000000000000000000000000000000000000000000000000000000027effffffffffffffffffffffffffffffffffffffffffffffffffffffffffffff1916115b15611266576000905061150d565b7f610000000000000000000000000000000000000000000000000000000000000082600281518110151561129657fe5b9060200101517f010000000000000000000000000000000000000000000000000000000000000090047f0100000000000000000000000000000000000000000000000000000000000000027effffffffffffffffffffffffffffffffffffffffffffffffffffffffffffff191610806113a957507f680000000000000000000000000000000000000000000000000000000000000082600281518110151561133a57fe5b9060200101517f010000000000000000000000000000000000000000000000000000000000000090047f0100000000000000000000000000000000000000000000000000000000000000027effffffffffffffffffffffffffffffffffffffffffffffffffffffffffffff1916115b156113b7576000905061150d565b7f31000000000000000000000000000000000000000000000000000000000000008260038151811015156113e757fe5b9060200101517f010000000000000000000000000000000000000000000000000000000000000090047f0100000000000000000000000000000000000000000000000000000000000000027effffffffffffffffffffffffffffffffffffffffffffffffffffffffffffff191610806114fa57507f380000000000000000000000000000000000000000000000000000000000000082600381518110151561148b57fe5b9060200101517f010000000000000000000000000000000000000000000000000000000000000090047f0100000000000000000000000000000000000000000000000000000000000000027effffffffffffffffffffffffffffffffffffffffffffffffffffffffffffff1916115b15611508576000905061150d565b600190505b919050565b60006115ff6115fa600160008673ffffffffffffffffffffffffffffffffffffffff1673ffffffffffffffffffffffffffffffffffffffff1681526020019081526020016000206000018054600181600116156101000203166002900480601f0160208091040260200160405190810160405280929190818152602001828054600181600116156101000203166002900480156115f05780601f106115c5576101008083540402835291602001916115f0565b820191906000526020600020905b8154815290600101906020018083116115d357829003601f168201915b5050505050611965565b611993565b14151561178f576117386116ec600160008573ffffffffffffffffffffffffffffffffffffffff1673ffffffffffffffffffffffffffffffffffffffff1681526020019081526020016000206000018054600181600116156101000203166002900480601f0160208091040260200160405190810160405280929190818152602001828054600181600116156101000203166002900480156116e25780601f106116b7576101008083540402835291602001916116e2565b820191906000526020600020905b8154815290600101906020018083116116c557829003601f168201915b5050505050611965565b61172a6040805190810160405280600181526020017f2000000000000000000000000000000000000000000000000000000000000000815250611965565b611a5990919063ffffffff16565b600160008473ffffffffffffffffffffffffffffffffffffffff1673ffffffffffffffffffffffffffffffffffffffff168152602001908152602001600020600001908051906020019061178d929190611cf4565b505b61188c611875600160008573ffffffffffffffffffffffffffffffffffffffff1673ffffffffffffffffffffffffffffffffffffffff1681526020019081526020016000206000018054600181600116156101000203166002900480601f01602080910402602001604051908101604052809291908181526020018280546001816001161561010002031660029004801561186b5780601f106118405761010080835404028352916020019161186b565b820191906000526020600020905b81548152906001019060200180831161184e57829003601f168201915b5050505050611965565b61187e83611965565b611a5990919063ffffffff16565b600160008473ffffffffffffffffffffffffffffffffffffffff1673ffffffffffffffffffffffffffffffffffffffff16815260200190815260200160002060000190805190602001906118e1929190611cf4565b508173ffffffffffffffffffffffffffffffffffffffff167f42d0aa63882d13f3b702a293667bf6267795c9fb27027c06f4f907daff222f9960405180806020018281038252600f8152602001807f5461736b2066696e69736865642021000000000000000000000000000000000081525060200191505060405180910390a25050565b61196d611d74565b600060208301905060408051908101604052808451815260200182815250915050919050565b6000806000806000601f8660200151039350856000015184019250600091505b82841015611a4d5760ff845116905060808160ff1610156119d957600184019350611a40565b60e08160ff1610156119f057600284019350611a3f565b60f08160ff161015611a0757600384019350611a3e565b60f88160ff161015611a1e57600484019350611a3d565b60fc8160ff161015611a3557600584019350611a3c565b6006840193505b5b5b5b5b81806001019250506119b3565b81945050505050919050565b611a61611d8e565b611a69611d8e565b60008360000151856000015101604051805910611a835750595b9080825280601f01601f19166020018201604052509150602082019050611ab38186602001518760000151611b4f565b611acc8560000151820185602001518660000151611b4f565b819250505092915050565b611adf611d74565b611aea838383611b9a565b5092915050565b611af9611d8e565b611b01611d8e565b60008360000151604051805910611b155750595b9080825280601f01601f19166020018201604052509150602082019050611b458185602001518660000151611b4f565b8192505050919050565b60005b602082101515611b775782518452602084019350602083019250602082039150611b52565b6001826020036101000a0390508019835116818551168181178652505050505050565b611ba2611d74565b6000611bc08560000151866020015186600001518760200151611c38565b90508460200151836020018181525050846020015181038360000181815250508460000151856020015101811415611c02576000856000018181525050611c2d565b8360000151836000015101856000018181510391508181525050836000015181018560200181815250505b829150509392505050565b60008060008060008887111515611ce257602087111515611c995760018760200360080260020a031980875116888b038a018a96505b818388511614611c8e57600187019650806001880310611c6e578b8b0196505b505050839450611ce8565b8686209150879350600092505b86890383111515611ce1578684209050806000191682600019161415611cce57839450611ce8565b6001840193508280600101935050611ca6565b5b88880194505b50505050949350505050565b828054600181600116156101000203166002900490600052602060002090601f016020900481019282601f10611d3557805160ff1916838001178555611d63565b82800160010185558215611d63579182015b82811115611d62578251825591602001919060010190611d47565b5b509050611d709190611da2565b5090565b604080519081016040528060008152602001600081525090565b602060405190810160405280600081525090565b611dc491905b80821115611dc0576000816000905550600101611da8565b5090565b905600a165627a7a723058201bfa2cd6811d76495073640c8b37f45bbc8f0f0b41bab0c4626e33a49a00f6840029",
    "source": "pragma solidity ^0.4.11;\nimport \"iexec-oracle-contract/contracts/IexecOracleAPI.sol\";\nimport \"./strings.sol\";\ncontract Stockfish is IexecOracleAPI{\n    using strings for *;\n    \n    uint public constant DAPP_PRICE = 0;\n    string public constant DAPP_NAME = \"stockfish\";\n\n    event Logs(string status, address indexed user); // logs for the front-end or smart contract to react correctly\n\n    struct Chess {\n    string game;\n    }\n\n    mapping (address => Chess) chessRegister;\n\n    function Stockfish (address _iexecOracleAddress) IexecOracleAPI(_iexecOracleAddress,DAPP_PRICE,DAPP_NAME){\n\n    }\n\n    function checkValidity(string userMove) constant returns (bool validity) {\n        if (userMove.toSlice().len() != 4) return false;\n        else if (bytes(userMove)[0] < \"a\" || bytes(userMove)[0] > \"h\") return false;\n        else if (bytes(userMove)[1] < \"1\" || bytes(userMove)[1] > \"8\") return false;\n        else if (bytes(userMove)[2] < \"a\" || bytes(userMove)[2] > \"h\") return false;\n        else if (bytes(userMove)[3] < \"1\" || bytes(userMove)[3] > \"8\") return false;\n        else return true;\n    }\n\n    function setParam(string userMove)  {\n        bool validity = checkValidity(userMove);\n        if (!validity) {\n            Logs(\"ERROR\", msg.sender);\n            throw;\n        }\n        if (chessRegister[msg.sender].game.toSlice().len() != 0)\n        chessRegister[msg.sender].game = \" \".toSlice().concat(chessRegister[msg.sender].game.toSlice()); // separate moves\n        chessRegister[msg.sender].game = userMove.toSlice().concat(chessRegister[msg.sender].game.toSlice());\n        //iexecSubmit(string appName, string param)\n       //iexecSubmit(\"stockfish\",chessRegister[msg.sender].game);\n    }\n\n    function undoMove() {\n        var game = chessRegister[msg.sender].game.toSlice();\n        uint8 nbmoves;\n        for( nbmoves=0; nbmoves<2; nbmoves++) { // delete the player move and the IA move\n            game.split(\" \".toSlice());\n        }\n        chessRegister[msg.sender].game = game.toString();\n        Logs(\"Task finished !\", msg.sender);\n    }\n\n    function flushGame() {\n        chessRegister[msg.sender].game = \"\";\n        Logs(\"Task finished !\", msg.sender);\n    }\n\n    //overwrite IexecOracleAPI iexecSubmitCallback\n    function iexecSubmitCallback(bytes32 submitTxHash, address user, string appName, string stdout) returns (bool){\n        require(msg.sender == iexecOracleAddress);\n        IexecSubmitCallback(submitTxHash,user,appName,stdout);\n        pushResult(user,stdout);\n        return true;\n    }\n\n    function pushResult(address userAddr, string newAIMove) internal {\n        if (chessRegister[userAddr].game.toSlice().len() != 0)\n        chessRegister[userAddr].game = \" \".toSlice().concat(chessRegister[userAddr].game.toSlice());\n        chessRegister[userAddr].game = newAIMove.toSlice().concat(chessRegister[userAddr].game.toSlice());\n        Logs(\"Task finished !\",userAddr);\n    }\n\n    function getResult() constant returns (string game) {\n        return (chessRegister[msg.sender].game);\n    }\n\n\n}\n",
    "sourcePath": "/home/victor/code/github.com/iExecBlockchainComputing/iexec-dapps-registry/contracts/Stockfish.sol",
    "compiler": {
        "name": "solc",
        "version": "0.4.19+commit.c4cbbb05.Emscripten.clang"
    },
    "schemaVersion": "1.0.1",
    "updatedAt": "2018-03-02T15:19:34.207Z"
}