{
  "contractName": "TimeClock",
  "abi": [
    {
      "constant": false,
      "inputs": [
        {
          "name": "submitTxHash",
          "type": "bytes32"
        },
        {
          "name": "user",
          "type": "address"
        },
        {
          "name": "stdout",
          "type": "string"
        },
        {
          "name": "uri",
          "type": "string"
        }
      ],
      "name": "iexecSubmitCallback",
      "outputs": [
        {
          "name": "",
          "type": "bool"
        }
      ],
      "payable": false,
      "stateMutability": "nonpayable",
      "type": "function"
    },
    {
      "constant": true,
      "inputs": [],
      "name": "DAPP_PRICE",
      "outputs": [
        {
          "name": "",
          "type": "uint256"
        }
      ],
      "payable": false,
      "stateMutability": "view",
      "type": "function"
    },
    {
      "constant": false,
      "inputs": [],
      "name": "badgeOut",
      "outputs": [],
      "payable": true,
      "stateMutability": "payable",
      "type": "function"
    },
    {
      "constant": false,
      "inputs": [],
      "name": "badgeIn",
      "outputs": [],
      "payable": true,
      "stateMutability": "payable",
      "type": "function"
    },
    {
      "constant": false,
      "inputs": [
        {
          "name": "param",
          "type": "string"
        }
      ],
      "name": "iexecSubmit",
      "outputs": [],
      "payable": true,
      "stateMutability": "payable",
      "type": "function"
    },
    {
      "constant": true,
      "inputs": [],
      "name": "alarmActivated",
      "outputs": [
        {
          "name": "",
          "type": "bool"
        }
      ],
      "payable": false,
      "stateMutability": "view",
      "type": "function"
    },
    {
      "constant": true,
      "inputs": [],
      "name": "DAPP_NAME",
      "outputs": [
        {
          "name": "",
          "type": "string"
        }
      ],
      "payable": false,
      "stateMutability": "view",
      "type": "function"
    },
    {
      "inputs": [
        {
          "name": "_iexecOracleAddress",
          "type": "address"
        }
      ],
      "payable": false,
      "stateMutability": "nonpayable",
      "type": "constructor"
    },
    {
      "anonymous": false,
      "inputs": [
        {
          "indexed": false,
          "name": "submitTxHash",
          "type": "bytes32"
        },
        {
          "indexed": true,
          "name": "user",
          "type": "address"
        },
        {
          "indexed": false,
          "name": "stdout",
          "type": "string"
        },
        {
          "indexed": false,
          "name": "uri",
          "type": "string"
        }
      ],
      "name": "IexecSubmitCallback",
      "type": "event"
    }
  ],
  "bytecode": "0x6060604052341561000f57600080fd5b604051602080610bec833981016040528080519060200190919050508060006040805190810160405280600981526020017f74696d65636c6f636b00000000000000000000000000000000000000000000008152506000836000806101000a81548173ffffffffffffffffffffffffffffffffffffffff021916908373ffffffffffffffffffffffffffffffffffffffff1602179055506000809054906101000a900473ffffffffffffffffffffffffffffffffffffffff1690508073ffffffffffffffffffffffffffffffffffffffff16635993ef5384846000604051602001526040518363ffffffff167c01000000000000000000000000000000000000000000000000000000000281526004018083815260200180602001828103825283818151815260200191508051906020019080838360005b83811015610162578082015181840152602081019050610147565b50505050905090810190601f16801561018f5780820380516001836020036101000a031916815260200191505b509350505050602060405180830381600087803b15156101ae57600080fd5b6102c65a03f115156101bf57600080fd5b5050506040518051905015156101d457600080fd5b505050506000600360006101000a81548160ff021916908315150217905550506109e9806102036000396000f300606060405260043610610083576000357c0100000000000000000000000000000000000000000000000000000000900463ffffffff16806310a9f201146100885780633c0aef301461016c5780635fee1c191461019557806378d95e281461019f5780638cd213b9146101a957806396d5c675146101fb578063c878f95814610228575b600080fd5b341561009357600080fd5b61015260048080356000191690602001909190803573ffffffffffffffffffffffffffffffffffffffff1690602001909190803590602001908201803590602001908080601f0160208091040260200160405190810160405280939291908181526020018383808284378201915050505050509190803590602001908201803590602001908080601f016020809104026020016040519081016040528093929190818152602001838380828437820191505050505050919050506102b6565b604051808215151515815260200191505060405180910390f35b341561017757600080fd5b61017f6105d5565b6040518082815260200191505060405180910390f35b61019d6105da565b005b6101a7610754565b005b6101f9600480803590602001908201803590602001908080601f01602080910402602001604051908101604052809392919081815260200183838082843782019150505050505091905050610844565b005b341561020657600080fd5b61020e610971565b604051808215151515815260200191505060405180910390f35b341561023357600080fd5b61023b610984565b6040518080602001828103825283818151815260200191508051906020019080838360005b8381101561027b578082015181840152602081019050610260565b50505050905090810190601f1680156102a85780820380516001836020036101000a031916815260200191505b509250505060405180910390f35b60008060009054906101000a900473ffffffffffffffffffffffffffffffffffffffff1673ffffffffffffffffffffffffffffffffffffffff163373ffffffffffffffffffffffffffffffffffffffff1614151561031357600080fd5b8373ffffffffffffffffffffffffffffffffffffffff167f68d2eaa37ea3e53bbe55f11eb038084f280086b8f4c4552dbca1b5692efeb9138685856040518084600019166000191681526020018060200180602001838103835285818151815260200191508051906020019080838360005b838110156103a0578082015181840152602081019050610385565b50505050905090810190601f1680156103cd5780820380516001836020036101000a031916815260200191505b50838103825284818151815260200191508051906020019080838360005b838110156104065780820151818401526020810190506103eb565b50505050905090810190601f1680156104335780820380516001836020036101000a031916815260200191505b509550505050505060405180910390a260405180807f4f4e0000000000000000000000000000000000000000000000000000000000008152506002019050604051809103902060001916836040518082805190602001908083835b6020831015156104b3578051825260208201915060208101905060208303925061048e565b6001836020036101000a0380198251168184511680821785525050505050509050019150506040518091039020600019161415610506576001600360006101000a81548160ff0219169083151502179055505b60405180807f4f464600000000000000000000000000000000000000000000000000000000008152506003019050604051809103902060001916836040518082805190602001908083835b6020831015156105765780518252602082019150602081019050602083039250610551565b6001836020036101000a03801982511681845116808217855250505050505090500191505060405180910390206000191614156105c9576000600360006101000a81548160ff0219169083151502179055505b60019050949350505050565b600081565b6000806000600160003373ffffffffffffffffffffffffffffffffffffffff1673ffffffffffffffffffffffffffffffffffffffff1681526020019081526020016000205414151561075057600160003373ffffffffffffffffffffffffffffffffffffffff1673ffffffffffffffffffffffffffffffffffffffff1681526020019081526020016000205491506000600160003373ffffffffffffffffffffffffffffffffffffffff1673ffffffffffffffffffffffffffffffffffffffff1681526020019081526020016000208190555081420390503373ffffffffffffffffffffffffffffffffffffffff166108fc829081150290604051600060405180830381858888f1935050505015156106f257600080fd5b600260008154809291906001900391905055506000600254141561074f5761074e6040805190810160405280600a81526020017f2d2d616374697661746500000000000000000000000000000000000000000000815250610844565b5b5b5050565b6000600160003373ffffffffffffffffffffffffffffffffffffffff1673ffffffffffffffffffffffffffffffffffffffff168152602001908152602001600020541415156107a257600080fd5b600060025414156107ec576107eb6040805190810160405280600d81526020017f2d2d646573616374697661746500000000000000000000000000000000000000815250610844565b5b42600160003373ffffffffffffffffffffffffffffffffffffffff1673ffffffffffffffffffffffffffffffffffffffff16815260200190815260200160002081905550600260008154809291906001019190505550565b60008060009054906101000a900473ffffffffffffffffffffffffffffffffffffffff1690508073ffffffffffffffffffffffffffffffffffffffff1663d99a8dc334846000604051602001526040518363ffffffff167c01000000000000000000000000000000000000000000000000000000000281526004018080602001828103825283818151815260200191508051906020019080838360005b838110156108fc5780820151818401526020810190506108e1565b50505050905090810190601f1680156109295780820380516001836020036101000a031916815260200191505b50925050506020604051808303818588803b151561094657600080fd5b6125ee5a03f1151561095757600080fd5b5050505060405180519050151561096d57600080fd5b5050565b600360009054906101000a900460ff1681565b6040805190810160405280600981526020017f74696d65636c6f636b0000000000000000000000000000000000000000000000815250815600a165627a7a7230582072d149fe70ab055d690bd775499cca84dab0ba9cfb8f30716f2e35e451b9c6710029",
  "source": "pragma solidity ^0.4.11;\nimport \"iexec-oracle-contract/contracts/IexecOracleAPI.sol\";\ncontract TimeClock is IexecOracleAPI{\n\n    uint public constant DAPP_PRICE = 0;\n    string public constant DAPP_NAME = \"timeclock\";\n\n\n    mapping (address => uint) employeeTimeClock;\n\n    uint employeeAtOffice;\n\n    bool public alarmActivated;\n    \n    function TimeClock (address _iexecOracleAddress) IexecOracleAPI(_iexecOracleAddress,DAPP_PRICE,DAPP_NAME){\n        alarmActivated= false;\n    }\n\n\n    function badgeIn() payable public{\n        //employee can't badge-in two time without badge-out\n        require(employeeTimeClock[msg.sender]  == 0);\n        if(employeeAtOffice == 0){\n            //first employee arrive at office => desactivate alarm\n            iexecSubmit(\"--desactivate\");\n        }\n        //store entering time of the employee\n        employeeTimeClock[msg.sender] = now;\n        // update the total of employee present at office\n        employeeAtOffice++;\n    }\n\n\n    function badgeOut() payable public {\n        // check if employee has badge-in. if badge-in, entering time of employee is valorized\n        if( employeeTimeClock[msg.sender] != 0 ){\n            //retreived the employee entering time\n            uint badgeInTime = employeeTimeClock[msg.sender];\n            //reset the employee entering time\n            employeeTimeClock[msg.sender] = 0;\n            //calcule how much to pay employee. simple 1 sec = 1 wei\n            uint weiToPay =  now - badgeInTime;\n            // send eth to employee\n            msg.sender.transfer(weiToPay);\n            // update the total of employee present at office\n            employeeAtOffice--;\n            // if no more employees at office => activate alarm\n            if(employeeAtOffice == 0){\n                iexecSubmit(\"--activate\");\n            }\n        }\n    }\n\n\n    function iexecSubmitCallback(bytes32 submitTxHash, address user, string stdout, string uri) public returns  (bool){\n        require(msg.sender == iexecOracleAddress);\n        IexecSubmitCallback(submitTxHash,user,stdout,uri);\n        if(keccak256(stdout) == keccak256(\"ON\")){\n            alarmActivated = true;\n        }\n\n        if(keccak256(stdout) == keccak256(\"OFF\")){\n            alarmActivated = false;\n        }\n        return true;\n    }\n\n\n\n}\n",
  "sourcePath": "/Users/fbranci/iexecdev/iexec-timeclock/contracts/TimeClock.sol",
  "compiler": {
    "name": "solc",
    "version": "0.4.18+commit.9cf6e910.Emscripten.clang"
  },
  "schemaVersion": "1.0.1",
  "updatedAt": "2017-12-25T12:08:09.129Z"
}